:020000040800F2
:10000000F0080020010100086104000859040008FC
:100010005D04000875010008CB0C0008000000001A
:10002000000000000000000000000000ED050008D6
:100030003D03000800000000D50400080107000887
:100040001B0100081B0100081B0100081B01000820
:100050001B0100081B0100081B0100081B01000810
:100060001B0100081B0100081B0100081B01000800
:100070001B0100081B0100081B0100081B010008F0
:100080001B0100081B0100081B0100081B010008E0
:100090001B0100081B0100081B0100081B010008D0
:1000A0001B0100081B0100081B0100081B010008C0
:1000B0001B0100081B010008A10700081B01000824
:1000C0001B0100081B0100081B0100081B010008A0
:1000D0001B010008390900081B010008810A0008FB
:1000E0001B0100081B0100081B010008DFF80CD0F1
:1000F00000F02EF800480047850F0008F0080020A7
:100100000648804706480047FEE7FEE7FEE7FEE7B1
:10011000FEE7FEE7FEE7FEE7FEE7FEE74107000831
:10012000ED00000830B50B460146002020220124D6
:1001300009E021FA02F59D4205D303FA02F5491BB5
:1001400004FA02F52844151EA2F10102F1DC30BDCB
:10015000064C074D06E0E06840F0010394E8070014
:1001600098471034AC42F6D3FFF7C4FF781000086C
:100170009810000800BFFEE710B5002400F024F836
:1001800004E0601CC4B2012000F0C4FE0D48006809
:1001900008B1642CF5DB642C01DB012010BD0024C8
:1001A00004E0601CC4B2012000F0B4FE0548006801
:1001B00008B9642CF5DB642C01DB0120EEE700209C
:1001C000ECE700002C01214208B54FF40060ADF8C7
:1001D000000048208DF803006946024800F0AFF89F
:1001E00008BD00000008014008B54FF40060ADF8FC
:1001F000000010208DF8030003208DF802006946EE
:10020000014800F09CF808BD0008014008B5012134
:10021000042000F071F94FF40060ADF800001020E8
:100220008DF8030003208DF802006946064800F0AF
:1002300086F84FF40061044800F00CF900F068F80B
:10024000FFF79AFF08BD00000008014010B5002428
:1002500004E0601CC4B2012000F05CFE0D480068A0
:1002600008B1642CF5DB002404E0601CC4B201205A
:1002700000F050FE0748006808B9642CF5DB282020
:1002800000F048FE0348006808B1012010BD0020BE
:10029000FCE700002C01214270B50024002506E097
:1002A0006006040EFFF7D2FF0443681CC5B2082D98
:1002B000F6DB204670BD7CB505460E4600F028F8FA
:1002C000FFF75AFFF8B9002405E0FFF7E5FF0DF846
:1002D0000400601CC4B2052CF7DB9DF800009DF8FB
:1002E000011008449DF8021008449DF803100844CA
:1002F0009DF80410884208D19DF8000030709DF8E8
:100300000200287001E001207CBD0020FCE7000015
:1003100010B5FFF769FF002006490860142000F0BF
:10032000D3FD01200449C1F8AC011E2000F0F2FD0C
:1003300010BD0000AC0121420000214270472DE9B0
:10034000F04102460025002600200023002400275B
:1003500091F803C00CF00F0591F803C00CF0100CDD
:10036000BCF1000F03D091F802C04CEA050591F8EA
:1003700000C0BCF1000F31D0146800202BE04FF01A
:10038000010C0CFA00F3B1F800C00CEA03069E421F
:1003900020D183004FF00F0C0CFA03F7BC4305FA91
:1003A00003FC4CEA040491F803C0BCF1280F06D109
:1003B0004FF0010C0CFA00FCC2F814C00AE091F8EE
:1003C00003C0BCF1480F05D14FF0010C0CFA00FC42
:1003D000C2F810C0401C0828D1D31460B1F800C086
:1003E000BCF1FF0F34DD546800202EE000F1080C52
:1003F0004FF0010808FA0CF3B1F800C00CEA03064C
:100400009E4221D183004FF00F0C0CFA03F7BC433E
:1004100005FA03FC4CEA040491F803C0BCF1280F70
:1004200005D100F1080C08FA0CF8C2F8148091F814
:1004300003C0BCF1480F07D100F1080C4FF00108D0
:1004400008FA0CF8C2F81080401C0828CED354607B
:10045000BDE8F0810161704700BFFEE700BFFEE725
:100460007047000070B5002100230F22C47804B348
:10047000154C246804F4E064C4F5E064210AC1F179
:100480000403CA40447804FA03F1847814402143F9
:1004900009010E4C0678A155047804F01F050124CB
:1004A000AC4005786D11AD0005F1E025C5F80041BF
:1004B00009E0047804F01F050124AC40044D0678DF
:1004C000761145F8264070BD0CED00E000E400E038
:1004D00080E100E07047000029B1064AD26902437A
:1004E000044BDA6104E0034AD2698243014BDA61CA
:1004F000704700000010024029B1064A9269024389
:10050000044B9A6104E0034A92698243014B9A6169
:10051000704700000010024030B500210022002486
:1005200000232D4D6D6805F00C0121B1042905D083
:10053000082923D105E0294D056022E0274D0560FB
:100540001FE0254D6D6805F47012234D6D6805F4AC
:100550008034022505EB92421CB9214D55430560BC
:100560000BE01D4D6D6805F400351DB11C4D554364
:10057000056002E0194D5543056002E0174D056026
:1005800000BF00BF144D6D6805F0F0010909154D5D
:100590006B5C0568DD4045600F4D6D6805F4E061FA
:1005A000090A104D6B5C4568DD4085600A4D6D6839
:1005B00005F46051C90A0B4D6B5C4568DD40C560B0
:1005C000054D6D6805F44041890B074D6B5CC568AE
:1005D000B5FBF3F5056130BD0010024000127A0052
:1005E00000093D000000002010000020704710B5F9
:1005F00000F002F810BD00000CB500200190009042
:100600003348006840F480303149086000BF30480A
:10061000006800F4003000900198401C01900098A0
:1006200018B90198B0F5A06FF1D12948006800F41D
:10063000003010B10120009001E0002000900098EF
:10064000012843D12348006840F010002149086088
:100650000846006820F0030008600846006840F083
:10066000020008601A484068194948600846406816
:1006700048600846406840F480604860084640682A
:1006800020F47C1048600846406840F4E810486058
:100690000846006840F08070086000BF0C480068A1
:1006A00000F000700028F9D00948406820F00300ED
:1006B000074948600846406840F00200486000BFB3
:1006C0000348406800F00C000828F9D10CBD000078
:1006D0000010024000200240042808D14FF0E02121
:1006E000096941F004014FF0E022116107E04FF089
:1006F000E021096921F004014FF0E0221161704707
:100700007047000010B504466FF00400FFF7E4FFE7
:10071000E11704EB5171C1F3C701074A117010468C
:10072000007800EB4001C1EBC0104FF6FF7101EA09
:10073000C0000249088010BD1600002018000020EB
:1007400010B51348006840F00100114908600846E0
:100750004068104908400E494860084600680E4944
:1007600008400B4908600846006820F480200860B3
:100770000846406820F4FE0048604FF41F0088607F
:10078000FFF735FF4FF000600449086010BD00001E
:10079000001002400000FFF8FFFFF6FE08ED00E049
:1007A00010B50121094800F05AF850B1012008495C
:1007B00008700848006808B9012000E000200549D9
:1007C00008600121014800F03BF810BD000800401E
:1007D00014000020800121427FB505460C4601210E
:1007E0000420FFF779FE0020ADF80600ADF8020006
:1007F000ADF80450ADF800406946104800F04AF8E2
:10080000012211460D4800F03BF801210B4800F091
:1008100017F81E208DF80C0001208DF80F00022023
:100820008DF80D0003208DF80E0003A8FFF71AFEC7
:100830000121024800F007F87FBD000000080040D9
:10084000CA430282704721B1028842F0010202804D
:1008500004E002884FF6FE731A400280704730B5FC
:100860000246002000230024158A05EA0103958929
:1008700005EA010413B10CB1012000E0002030BDF5
:100880001AB183890B43838102E083898B4383817F
:1008900070470000002202881D4B98420ED01D4B6D
:1008A00098420BD0B0F1804F08D01B4B984205D036
:1008B0001A4B984202D01A4B984204D14FF68F73CC
:1008C0001A404B881A43174B984207D0164B984250
:1008D00004D04FF6FF431A40CB881A4302808B881E
:1008E00083850B8803850A4B98420BD0094B9842AD
:1008F00008D00E4B984205D00D4B984202D00D4BBC
:10090000984201D10B7A038601238382704700004D
:10091000002C014000340140000400400008004069
:10092000000C004000100040001400400040014056
:10093000004401400048014010B540F225511F48D5
:1009400000F0FEF8002838D01C4800F0B5F9C4B219
:100950001B48008800F4004058BB1948008800F488
:10096000804060B10A2C06D11548008840F4004050
:10097000134908801DE000201149088019E00D2C62
:1009800006D10F48008840F480400D49088010E0EF
:100990000B480088C0F30D000A490C540848008831
:1009A000401C0749088008460088C82801DB002051
:1009B00008802146014800F084F910BD003801404C
:1009C0001A0000202204002010B586B00446012140
:1009D0008803FFF791FD01210420FFF78DFD4FF4FF
:1009E0000070ADF8140018208DF8170003208DF862
:1009F000160005A92048FFF7A2FC4FF48060ADF86F
:100A0000140004208DF8170003208DF8160005A9A6
:100A10001948FFF794FC01940020ADF810000C2059
:100A2000ADF80E000020ADF80C00ADF80A00ADF8EE
:100A3000080001A9114800F0D3F8012240F2255125
:100A40000E4800F0A7F840210C4800F057F8252088
:100A50008DF8000001208DF8030003208DF80100BF
:100A60008DF802006846FFF7FDFC0121034800F005
:100A70004EF806B010BD00000008014000380140EB
:100A800010B540F225511B4800F05AF8D8B119486A
:100A900000F012F9C4B21848B0F80004C0F30E0018
:100AA00040F2FF3188420EDA1349B1F80014C1F365
:100AB0000E00411C104AB2F8002461F30E020E49E8
:100AC000A1F800240C5440F224410A4800F038F800
:100AD00001280DD10848B0F8000420F4004000F5CA
:100AE00000400549A1F80004024800F0E5F8C4B24E
:100AF00010BD0000004800402000002001F40072FA
:100B0000B2F5007F00D100BFCA430280704721B117
:100B1000828942F40052828104E082894DF6FF739B
:100B20001A408281704702460020B1F5007F00D153
:100B300000BF13880B400BB1012000E0002070477C
:100B400070B50246002400230025002040F66A16F6
:100B5000B14200D100BFC1F3421501F01F030126CD
:100B600006FA03F3012D02D19689334006E0022DE7
:100B700002D1168A334001E0968A33400C120126D6
:100B800006FA04F41688344013B10CB1012000E0D9
:100B9000002070BDF0B5034600240026002500208B
:100BA00040F66A17B94200D100BF1846C1F342149B
:100BB00001F01F06012707FA06F5012C01D10C30C0
:100BC00004E0022C01D1103000E014301AB10768A3
:100BD0002F43076002E00768AF430760F0BD0000E5
:100BE0002DE9F04786B005460E460024A24600BF18
:100BF000A1460027B08900B100BF2F462C8A4CF6D1
:100C0000FF700440F08804432C82AC894EF6F31048
:100C10000440B08831890843718908430443AC819A
:100C2000AC8A4FF6FF400440B0890443AC8201A86F
:100C3000FFF772FC1F48874202D1DDF810A001E0E7
:100C4000DDF80CA0A88900F4004040B10AEBCA000E
:100C500000EB0A1031684900B0FBF1F807E00AEB3D
:100C6000CA0000EB0A1031688900B0FBF1F864207B
:100C7000B8FBF0F004012009642101FB1089A88968
:100C800000F4004040B1322000EBC900B0FBF1F0AD
:100C900000F00700044308E0322000EB0910642153
:100CA000B0FBF1F000F00F0004432C8106B0BDE86A
:100CB000F08700000038014001468888C0F3080032
:100CC0007047C1F308028280704700BFFEE7000052
:100CD0000FB4054B10B503A9044A029800F018F8A8
:100CE00010BC5DF814FB0000610F00081C00002020
:100CF00002E008C8121F08C1002AFAD170477047E5
:100D0000002001E001C1121F002AFBD17047000042
:100D10002DE9FF4F8BB09A460F460546002606E0A8
:100D200025280BD052460D9990476D1C761C2878CB
:100D30000028F5D10FB03046BDE8F08F0024A04662
:100D40000122604900E0044315F8013F203B02FA0C
:100D500003F00842F7D128782E2817D115F8010F93
:100D600044F004042A280ED06FF02F022878A0F156
:100D7000300109290AD808EB880102EB410100EB98
:100D800001086D1CF2E757F8048B6D1C2878692860
:100D90003ED006DC0028CDD063280BD0642804D1D7
:100DA00036E0732810D075284BD052460D999047E5
:100DB000761C85E017F8040B8DF8000000208DF8F4
:100DC0000100E946012003E057F8049B4FF0FF3093
:100DD00061074FF0000401D40AE0641C44450DDAB9
:100DE0008442FADB19F804100029F6D106E0641CED
:100DF0008442FCDB19F804100029F8D1264404E0F1
:100E000019F8010B52460D999047641EF8D257E02D
:100E100001CF4FF00A0B002802DA40422D2102E0F8
:100E2000210504D52B218DF82410012103E0E107D1
:100E300005D02021F7E70DF1200908910CE00021F1
:100E4000F9E701CF4FF00A0BF9E75946FFF76AF9C6
:100E500001F1300209F8012D0028F6D1ADEB0900AF
:100E600000F1200B600701D44FF00108D84502DDE6
:100E7000A8EB0B0000E000208046002406E009A853
:100E80005246005D0D999047641C761C0898844278
:100E9000F5DB04E0302052460D999047761CB8F1FE
:100EA0000001A8F10108F5DC05E019F8010B524634
:100EB0000D999047761CBBF10001ABF1010BF4DCFE
:100EC0006D1C34E7092801000146114A12884A4383
:100ED0004FF0E0235A6100229A611A46126942F0EB
:100EE00001021A6100BF4FF0E022106900F0010218
:100EF0001AB100F48032002AF5D04FF0E0221269D6
:100F000022F001024FF0E0231A6100229A6170473B
:100F1000180000200146114A12784A434FF0E0239E
:100F20005A6100229A611A46126942F001021A615E
:100F300000BF4FF0E022106900F001021AB100F486
:100F40008032002AF5D04FF0E022126922F001022F
:100F50004FF0E0231A6100229A61704716000020CA
:100F600070B504460D46E1B20548FFF7AAFE00BF82
:100F700080210348FFF7D7FD0028F9D0204670BD37
:100F8000003801401CB50020019000904820FFF778
:100F9000B9FB4FF4E130FFF717FD41F61F4144F66E
:100FA0001F60FFF719FC13A0FFF792FEFFF72EF961
:100FB00018B917A0FFF78CFE02E019A0FFF788FE12
:100FC00016E02048007898B100201E490870694654
:100FD00001A8FFF770F9C4B23CB99DF800209DF854
:100FE000041019A0FFF774FE02E01EA0FFF770FEC8
:100FF000E7E700000D0A3D3D3D2053797374656DB0
:10100000205374617274203D3D3D0D0A00000000C4
:10101000444854313120496E6974204F4B0D0A0009
:10102000444854313120496E6974204641494C4549
:1010300044202D20636865636B20776972696E6751
:10104000210D0A001400002054656D703A202564BB
:1010500020432C2048756D693A2025642025250DF4
:101060000A00000044485431312052656164204632
:1010700041494C45440D0A0098100008000000202A
:1010800020000000F00C0008B8100008200000202C
:10109000D0080000000D0008000000000102030459
:1010A0000102030406070809020406080000000004
:0810B000000000000000000038
:04000005080000ED02
:00000001FF
